:100000003DC0000057C0000055C0000053C00000B4
:1000100051C000004FC000004DC000004BC00000A8
:1000200049C0000047C0000045C0000043C00000B8
:1000300041C000003FC000003DC000003BC00000C8
:1000400039C0000086C60000EFC3000033C00000C6
:1000500031C000002FC0000051C400002BC00000C0
:1000600029C0000027C0000025C0000023C00000F8
:1000700021C000001FC000001DC0000011241FBED1
:10008000CFEFD4E0DEBFCDBF11E0A0E0B1E0E6E10C
:10009000F1E102C005900D92A432B107D9F721E039
:1000A000A4E2B1E001C01D92A339B207E1F709D083
:1000B0000C948908A5CFABD696D492D035D6B2D6BB
:1000C000FDCF7894F8DF2AE031E0FC013183208312
:1000D000B7C484E291E0F7CFCF93DF93EC01F3DF75
:1000E00065E070E0CE01DF91CF9121C66F927F92E3
:1000F0008F929F92AF92BF92CF92DF92EF92FF9238
:100100000F931F93CF93DF93CDB7DEB763970FB6EF
:10011000F894DEBF0FBECDBF4C0186D48AE091E0DB
:10012000D4018D939D935D01CD011AD46BD23C0116
:1001300002D229833A834B835C836D837E838F83D2
:100140006C817D81C30170D2FE013B9689E0DF01A5
:100150001D928A95E9F783E0C82E91EED92EEE2400
:10016000E394FE840F85188929893A894B896DEAC1
:1001700074E0C30174D24FEA54E061E0C301D1D20C
:10018000DAD129833A834B835C836D837E838F83AB
:100190008E819F81F40194838383C501E5D340E080
:1001A00064E1CE01019634D448EE53E060E070E0A3
:1001B000CE010196F6D463960FB6F894DEBF0FBE5B
:1001C000CDBFDF91CF911F910F91FF90EF90DF9006
:1001D000CF90BF90AF909F908F907F906F90089539
:1001E0008091290181110EC089E291E0A1D5892B6E
:1001F00049F084E291E07ADF89E291E0A2D589E6D4
:1002000090E0A4D584E291E00895AF92BF92CF929E
:10021000DF92EF92FF920F931F93CF93DF93CDB7AF
:10022000DEB7EF970FB6F894DEBF0FBECDBF7C01EF
:10023000162FE8D15C01412FBC01CE01C796A5D293
:100240009FA9992309F4D5C009AD2AAD88AD8430A2
:1002500009F44EC028F4823051F0833019F198C06F
:10026000853009F460C08E3F09F486C091C063D127
:1002700029833A834B835C836D837E838F83FE0166
:10028000BE9689E0DF011D928A95E9F723E0C22E30
:1002900032E0D32EE62EF52E0AA91BA92CA93DA9E2
:1002A0004EA9A3C0933009F087C010E0102F00279B
:1002B000020F111D40D129833A834B837E838F83A4
:1002C0000C831D83CE01019675D1FE01B59689E0A0
:1002D000DF011D928A95E9F783E0C82E93E0D92EBD
:1002E000E12EF02E09A51AA52BA53CA54DA57DC094
:1002F00022D129833A834B835C836D837E838F83F2
:10030000FE017C9699E0DF011D929A95E9F7F3E0F2
:10031000CF2EA4E0DA2EE82EF72E08A119A12AA1EB
:100320003BA14CA162C0933009F046C010E0102FF1
:100330000027020F111DFFD029833A834B835C8372
:100340006D830E831F83CE01019634D1F7010383A1
:100350001483FE01739689E0DF011D928A95E9F707
:1003600073E0C72EE5E0DE2EE12EF02E0F89188D0A
:10037000298D3A8D4B8D39C09330F1F410E0102F58
:100380000027020F111D0D3A1E4DB1F44DD531C09D
:10039000FE013A9689E0DF011D928A95E9F733E084
:1003A000C32E4EEED42EEC84FF24F3940E851F85CD
:1003B000288939894A8919C0FE01319689E0DF010F
:1003C0001D928A95E9F783E089838EEE8A8382E025
:1003D0008C8383E0C82E9EEED92EEB8022E0F22E95
:1003E0000D811E812F81388549856DEA74E0C50134
:1003F00036D1EF960FB6F894DEBF0FBECDBFDF91BA
:10040000CF911F910F91FF90EF90DF90CF90BF9011
:10041000AF9008958F929F92AF92BF92CF92DF924A
:10042000EF92FF920F931F93CF93DF93CDB7DEB779
:1004300063970FB6F894DEBF0FBECDBF8C015C0191
:1004400082E0A80EB11CC5019FD26B017C01D801CE
:1004500013962D913C9114974AE0429FC001439F0F
:10046000900D1124A0E0B0E08C159D05AE05BF05F0
:1004700018F5C50180D2F8012381348140E050E0B5
:10048000C701B601DCD449015A01BCD0FE013B963C
:1004900029E0DF011D922A95E9F7E92CFF2433E0DA
:1004A000C32E42EED42EF82C0F85188929893A895B
:1004B0004B896EEA74E0D3D040E064E1CE0101964E
:1004C000A7D248EE53E060E070E0CE01019669D318
:1004D00063960FB6F894DEBF0FBECDBFDF91CF910C
:1004E0001F910F91FF90EF90DF90CF90BF90AF9052
:1004F0009F908F900895FB0120812A3011F4618133
:1005000084CE243109F486CF0895FC0182818111C3
:1005100008C088EE93E09483838382E190E0968321
:10052000858381E0828308952EEA3EEAFC013183CF
:1005300020831282EACFCF93DF93CDB7DEB72E9719
:100540000FB6F894DEBF0FBECDBFCE010896ECDF2C
:1005500047E050E060E170E0CE010896B3D58885B1
:1005600099858E3A9E4A19F48A85823018F0CE0118
:100570000896DADF8A85811103C0CE010896C5DFAF
:1005800087E0FE013896DE01119601900D928A9562
:10059000E1F729813A814B815C816D817E818F8178
:1005A00090E02E960FB6F894DEBF0FBECDBFDF9160
:1005B000CF91089547E050E060E170E093C581E09D
:1005C0008093D8001092E2008CE08093E30086E3F1
:1005D0008093E40080E0982F9295907F9093ED00B7
:1005E0001092EE001092EF008F5F8630A1F780EB43
:1005F0008093DB0082E08093D8008091D90082FF55
:10060000FCCF089580915E0181110BC08EE591E0D1
:100610008FD3892B31F081E391E0D1DF8EE591E03A
:1006200090D381E391E008956A3F710561F0643FE2
:1006300081E0780731F06436710539F01092E200FC
:1006400007C082E003C086E001C082E18093E2003F
:100650008CE08093E30086E38093E4000895CF92DA
:10066000DF92EF92FF920F931F93CF93DF93CDB75B
:10067000DEB729970FB6F894DEBF0FBECDBFC98293
:10068000DA82EB82FC820D831E832F8338874987B1
:100690001092ED001092EE001092EF00CB0123E0DB
:1006A000969587952A95E1F78093F3006295660FFA
:1006B000607E6093F2001092F1001092F400998134
:1006C0008091EF00807F892B8093EF009E012F5F48
:1006D0003F4FF901892F90E0AF01421B530B4817A0
:1006E000590729F041814093FA003196F5CF809166
:1006F000DE0081608093DE008091EF008F70806467
:100700008093EF0029960FB6F894DEBF0FBECDBFE1
:10071000DF91CF911F910F91FF90EF90DF90CF90DD
:100720000895862F8295807F8093ED001092EE00D1
:10073000EFEEF0E01082CA0123E0969587952A95A6
:10074000E1F78093F3004295440F407E4093F2001E
:100750001092F100A4EFB0E01C928FEF8093F700AD
:1007600080EE8093F6001092F50088EF8C93AEED4A
:10077000B0E02C9181E090E001C0880F6A95EAF723
:10078000822B8C9380E8808308952FEF240F2530EF
:1007900030F029E0FC0111922A95E9F7089550E024
:1007A0004150510929E0249FF001259FF00D1124AB
:1007B000E60FF71FDC0101900D922A95E1F70895ED
:1007C000CF93DF93CDB7DEB72A970FB6F894DEBF8D
:1007D0000FBECDBF262F30E02150310979E0729F46
:1007E000D001739FB00D1124A80FB91F89E0FA0141
:1007F00001900D928A95E1F7462F6AE0CE010196AD
:1008000007D1CE010196C5D11092EE00EFEEF0E0D7
:10081000108280E880832A960FB6F894DEBF0FBE60
:10082000CDBFDF91CF9108951F920F920FB60F9217
:100830001124EF92FF921F932F933F934F935F9357
:100840006F937F938F939F93AF93BF93EF93FF9398
:10085000CF93DF93CDB7DEB72997DEBFCDBF8091B1
:10086000EC00807F8093ED008091EE0086FF06C053
:100870001092EE008091ED00C5DE24C08091EE0064
:1008800085FF20C01092EE008091EF008F70898369
:100890009E012F5F3F4F7901F9019E2F9E19891705
:1008A00029F09091FA0091833196F7CF1091ED00E5
:1008B000A9DE612F70E024E0759567952A95E1F730
:1008C000A7017EDF29960FB6F894DEBF0FBECDBF1D
:1008D000DF91CF91FF91EF91BF91AF919F918F9158
:1008E0007F916F915F914F913F912F911F91FF9059
:1008F000EF900F900FBE0F901F9018951F920F92C0
:100900000FB60F9211242F938F939F93AF93BF93A2
:1009100093B18091660123B120936601892785FFF9
:1009200015C01D9913C08091670190916801A09135
:100930006901B0916A010196A11DB11D8093670103
:1009400090936801A0936901B0936A01BF91AF9140
:100950009F918F912F910F900FBE0F901F90189520
:100960002D9A10926800089580E280936A0081E0D9
:1009700080936800089510926701109268011092A8
:10098000690110926A010895609167017091680190
:100990008091690190916A010895FB018081813005
:1009A00011F480E189B9089524E131E0FC0131833B
:1009B000208346C08BE691E0F7CFCF93DF93EC0125
:1009C000F3DF62E070E0CE01DF91CF91B0C1CF9351
:1009D000DF93EC0129D084E191E099838883549AD4
:1009E000DF91CF91089580916D0181110EC08DE648
:1009F00091E09ED1892B49F08BE691E0E8DF8DE60E
:100A000091E09FD18AED94E0A1D18BE691E0089529
:100A1000FC01608341831282138214821582168244
:100A20001782108611860895CF93DF93EC018EE133
:100A300091E09983888328D0CE01DF91CF913EC089
:100A400008958091770190917801009759F0FC0109
:100A500022813381309378012093770164E070E044
:100A600066D1EFCF8091750190917601009759F092
:100A7000FC012285338530937601209375016CE06B
:100A800070E055D1EFCF089580917901811113C0A5
:100A900089E791E04DD1892B71F010927601109287
:100AA0007501109278011092770189E791E049D1A0
:100AB00081E295E04BD185E791E00895EF92FF92B6
:100AC0000F931F93CF93DF938C01DEDF7C01FC013A
:100AD000C281D381209761F484E090E027D1FC01AA
:100AE0001183008313821282F7019383828310C0E3
:100AF0008A819B81009711F0EC01FACF84E090E0AD
:100B000015D1FC0111830083138212829B838A8397
:100B1000DF91CF911F910F91FF90EF900895EF9289
:100B2000FF920F931F93CF93DF937C018B01FC0106
:100B3000C081D181209789F48CE090E0F7D02AE041
:100B4000F801DC0101900D922A95E1F7FC01138672
:100B50001286F7019183808315C08A859B85009753
:100B600011F0EC01FACF8CE090E0E0D02AE0F8013F
:100B7000DC0101900D922A95E1F7FC0113861286A3
:100B80009B878A87DF91CF911F910F91FF90EF9004
:100B90000895CF93DF93EC0177DFBE01DF91CF9112
:100BA000BECFCF93DF93CDB7DEB72A970FB6F894B9
:100BB000DEBF0FBECDBFFC019AE0DE0111960190B1
:100BC0000D929A95E1F74B835C836D837E8305D10B
:100BD0006F83788789879A8757DFBE016F5F7F4F62
:100BE0009EDF2A960FB6F894DEBF0FBECDBFDF9111
:100BF000CF910895CF93DF93DC01ED91FC91309775
:100C000021F1EB01A881B981EA17FB0769F422857C
:100C10003385DC012D933C936CE070E0CF0112C072
:100C2000A817B90731F0FC01828593850097C1F7B9
:100C30000CC01A968D919C911B97938782876CE0CC
:100C400070E0CD01DF91CF9172C0DF91CF91089517
:100C50008F929F92AF92BF92CF92DF92EF92FF92CC
:100C60000F931F93CF93DF9300D0CDB7DEB76C0106
:100C7000DC010D911C910115110509F446C0F80124
:100C800082819381A481B581892B8A2B8B2BC1F022
:100C9000A4D0D80116968D909D90AD90BC901997D8
:100CA000DC01CB0188199909AA09BB09F8018280E6
:100CB0009380A480B58088159905AA05BB0510F11D
:100CC000F601E280F380E114F10469F0D7018D911F
:100CD0009C91DC01ED91FC910480F581E02DB8013F
:100CE0000995F701EECFD8011A96EC901A971B964A
:100CF000FC901A830983BE016F5F7F4FC6017ADFC4
:100D00008701B9CF02851385B6CF0F900F90DF9181
:100D1000CF911F910F91FF90EF90DF90CF90BF90F8
:100D2000AF909F908F900895AFDE92CFAAC041C13F
:100D3000FC0181E090E02081222311F080E090E02E
:100D4000089521E0FC0120830895FFCF80E090E02A
:100D500008951F920F920FB60F9211242F933F9375
:100D60008F939F93AF93BF9380918B0190918C0150
:100D7000A0918D01B0918E0130918A0123E0230F63
:100D80002D3720F40196A11DB11D05C026E8230FC3
:100D90000296A11DB11D20938A0180938B0190932F
:100DA0008C01A0938D01B0938E01BF91AF919F9163
:100DB0008F913F912F910F900FBE0F901F9018951C
:100DC000789484B5836084BD85B5836085BDEEE687
:100DD000F0E080818160808308958091820181119B
:100DE0000BC082E891E0A4DF892B31F081E891E02B
:100DF000E7DF82E891E0A5DFF89460918B017091C4
:100E00008C0180918D0190918E017894089599E2E2
:100E100088E10FB6F894A895809360000FBE909378
:100E200060000895A895089598E088E10FB6F894B9
:100E3000A895809360000FBE90936000FFCFA1E261
:100E40001A2EAA1BBB1BFD010DC0AA1FBB1FEE1F44
:100E5000FF1FA217B307E407F50720F0A21BB30B8F
:100E6000E40BF50B661F771F881F991F1A9469F70B
:100E700060957095809590959B01AC01BD01CF0167
:100E800008950F931F93CF93DF938230910510F451
:100E900082E090E0E0919101F091920120E030E059
:100EA000A0E0B0E0309719F14081518102811381B7
:100EB00048175907C8F08417950769F4109731F05F
:100EC00012960C93129713961C9327C000939101CE
:100ED0001093920122C02115310519F042175307D2
:100EE00018F49A01BD01EF01DF01F801DBCF2115F4
:100EF0003105F9F0281B390B2430310580F48A8143
:100F00009B816115710521F0FB019383828304C0ED
:100F10009093920180939101FE01329644C0FE01AC
:100F2000E20FF31F81939193225031093983288373
:100F30003AC020918F0130919001232B41F42091F0
:100F40000201309103013093900120938F01209191
:100F50000001309101012115310541F42DB73EB753
:100F60004091040150910501241B350BE0918F0144
:100F7000F0919001E217F307A0F42E1B3F0B281706
:100F8000390778F0AC014E5F5F4F2417350748F002
:100F90004E0F5F1F5093900140938F018193919367
:100FA00002C0E0E0F0E0CF01DF91CF911F910F91FF
:100FB0000895CF93DF93009709F481C0FC01329725
:100FC00013821282A0919101B0919201109781F445
:100FD00020813181820F931F20918F0130919001E8
:100FE0002817390751F5F0939001E0938F0167C0FE
:100FF000ED0120E030E0CE17DF0740F44A815B814D
:101000009E0141155105F1F0EA01F5CFD383C2836A
:1010100040815181840F951FC817D90759F48881E1
:101020009981840F951F0296918380838A819B8189
:10103000938382832115310529F4F0939201E09383
:1010400091013DC0E901FB83EA8349915991C40FA5
:10105000D51FEC17FD0761F480819181840F951FE6
:101060000296E90199838883828193819B838A8395
:10107000E0E0F0E012968D919C911397009719F0A3
:10108000FD01DC01F7CF8D919C9111979D012E5FA1
:101090003F4F820F931F20918F01309190012817AD
:1010A000390769F4309729F4109292011092910156
:1010B00002C013821282B0939001A0938F01DF913E
:1010C000CF910895DC01CB01FC01F999FECF06C058
:1010D000F2BDE1BDF89A319600B40D9241505040F6
:1010E000B8F70895DC01CB0102C02D9105D0415025
:1010F0005040D8F70895262FF999FECF1FBA92BD18
:1011000081BD20BD0FB6F894FA9AF99A0FBE0196E8
:061110000895F894FFCFE2
:101116000000930120000000000063006C007B02C9
:1011260000000000D404DD04CD040000000000002F
:041136000000A5060A
:00000001FF
